{
  "contractName": "SimpleStorage",
  "abi": [
    {
      "anonymous": false,
      "inputs": [
        {
          "indexed": false,
          "internalType": "uint256",
          "name": "id",
          "type": "uint256"
        },
        {
          "indexed": false,
          "internalType": "string",
          "name": "fileHash",
          "type": "string"
        },
        {
          "indexed": false,
          "internalType": "uint256",
          "name": "fileSize",
          "type": "uint256"
        },
        {
          "indexed": false,
          "internalType": "string",
          "name": "fileType",
          "type": "string"
        },
        {
          "indexed": false,
          "internalType": "string",
          "name": "fileName",
          "type": "string"
        },
        {
          "indexed": false,
          "internalType": "string",
          "name": "fileDescription",
          "type": "string"
        },
        {
          "indexed": false,
          "internalType": "uint256",
          "name": "uploadTime",
          "type": "uint256"
        },
        {
          "indexed": false,
          "internalType": "address",
          "name": "uploader",
          "type": "address"
        }
      ],
      "name": "fileUploaded",
      "type": "event"
    },
    {
      "inputs": [],
      "name": "count",
      "outputs": [
        {
          "internalType": "uint256",
          "name": "",
          "type": "uint256"
        }
      ],
      "stateMutability": "view",
      "type": "function"
    },
    {
      "inputs": [
        {
          "internalType": "uint256",
          "name": "",
          "type": "uint256"
        }
      ],
      "name": "files",
      "outputs": [
        {
          "internalType": "uint256",
          "name": "id",
          "type": "uint256"
        },
        {
          "internalType": "string",
          "name": "fileHash",
          "type": "string"
        },
        {
          "internalType": "uint256",
          "name": "fileSize",
          "type": "uint256"
        },
        {
          "internalType": "string",
          "name": "fileType",
          "type": "string"
        },
        {
          "internalType": "string",
          "name": "fileName",
          "type": "string"
        },
        {
          "internalType": "string",
          "name": "fileDescription",
          "type": "string"
        },
        {
          "internalType": "uint256",
          "name": "uploadTime",
          "type": "uint256"
        },
        {
          "internalType": "address",
          "name": "uploader",
          "type": "address"
        }
      ],
      "stateMutability": "view",
      "type": "function"
    },
    {
      "inputs": [
        {
          "internalType": "string",
          "name": "_fileHash",
          "type": "string"
        },
        {
          "internalType": "uint256",
          "name": "_fileSize",
          "type": "uint256"
        },
        {
          "internalType": "string",
          "name": "_fileType",
          "type": "string"
        },
        {
          "internalType": "string",
          "name": "_fileName",
          "type": "string"
        },
        {
          "internalType": "string",
          "name": "_fileDescription",
          "type": "string"
        }
      ],
      "name": "uploadFile",
      "outputs": [],
      "stateMutability": "payable",
      "type": "function"
    }
  ],
  "bytecode": "0x60806040526000805534801561001457600080fd5b50610b6d806100246000396000f3fe6080604052600436106100345760003560e01c806306661abd14610039578063e82d9d3314610064578063f4c714b414610080575b600080fd5b34801561004557600080fd5b5061004e6100c4565b60405161005b919061081d565b60405180910390f35b61007e600480360381019061007991906106ae565b6100ca565b005b34801561008c57600080fd5b506100a760048036038101906100a29190610799565b6102fe565b6040516100bb989796959493929190610838565b60405180910390f35b60005481565b60008551116100d857600080fd5b60008351116100e657600080fd5b60008151116100f457600080fd5b600082511161010257600080fd5b600083511161011057600080fd5b6000841161011d57600080fd5b600073ffffffffffffffffffffffffffffffffffffffff163373ffffffffffffffffffffffffffffffffffffffff16141561015757600080fd5b60008081548092919061016990610a25565b919050555060405180610100016040528060005481526020018681526020018581526020018481526020018381526020018281526020014281526020013373ffffffffffffffffffffffffffffffffffffffff1681525060016000805481526020019081526020016000206000820151816000015560208201518160010190805190602001906101fa929190610586565b50604082015181600201556060820151816003019080519060200190610221929190610586565b50608082015181600401908051906020019061023e929190610586565b5060a082015181600501908051906020019061025b929190610586565b5060c0820151816006015560e08201518160070160006101000a81548173ffffffffffffffffffffffffffffffffffffffff021916908373ffffffffffffffffffffffffffffffffffffffff1602179055509050507f3563bedf857c5b4236b616a4193fedc9bfea9b457e044699947db4710cb18bac600054868686868642336040516102ef989796959493929190610838565b60405180910390a15050505050565b6001602052806000526040600020600091509050806000015490806001018054610327906109c2565b80601f0160208091040260200160405190810160405280929190818152602001828054610353906109c2565b80156103a05780601f10610375576101008083540402835291602001916103a0565b820191906000526020600020905b81548152906001019060200180831161038357829003601f168201915b5050505050908060020154908060030180546103bb906109c2565b80601f01602080910402602001604051908101604052809291908181526020018280546103e7906109c2565b80156104345780601f1061040957610100808354040283529160200191610434565b820191906000526020600020905b81548152906001019060200180831161041757829003601f168201915b505050505090806004018054610449906109c2565b80601f0160208091040260200160405190810160405280929190818152602001828054610475906109c2565b80156104c25780601f10610497576101008083540402835291602001916104c2565b820191906000526020600020905b8154815290600101906020018083116104a557829003601f168201915b5050505050908060050180546104d7906109c2565b80601f0160208091040260200160405190810160405280929190818152602001828054610503906109c2565b80156105505780601f1061052557610100808354040283529160200191610550565b820191906000526020600020905b81548152906001019060200180831161053357829003601f168201915b5050505050908060060154908060070160009054906101000a900473ffffffffffffffffffffffffffffffffffffffff16905088565b828054610592906109c2565b90600052602060002090601f0160209004810192826105b457600085556105fb565b82601f106105cd57805160ff19168380011785556105fb565b828001600101855582156105fb579182015b828111156105fa5782518255916020019190600101906105df565b5b509050610608919061060c565b5090565b5b8082111561062557600081600090555060010161060d565b5090565b600061063c610637846108f7565b6108d2565b90508281526020810184848401111561065857610657610b00565b5b610663848285610980565b509392505050565b600082601f8301126106805761067f610afb565b5b8135610690848260208601610629565b91505092915050565b6000813590506106a881610b20565b92915050565b600080600080600060a086880312156106ca576106c9610b0a565b5b600086013567ffffffffffffffff8111156106e8576106e7610b05565b5b6106f48882890161066b565b955050602061070588828901610699565b945050604086013567ffffffffffffffff81111561072657610725610b05565b5b6107328882890161066b565b935050606086013567ffffffffffffffff81111561075357610752610b05565b5b61075f8882890161066b565b925050608086013567ffffffffffffffff8111156107805761077f610b05565b5b61078c8882890161066b565b9150509295509295909350565b6000602082840312156107af576107ae610b0a565b5b60006107bd84828501610699565b91505092915050565b6107cf81610944565b82525050565b60006107e082610928565b6107ea8185610933565b93506107fa81856020860161098f565b61080381610b0f565b840191505092915050565b61081781610976565b82525050565b6000602082019050610832600083018461080e565b92915050565b60006101008201905061084e600083018b61080e565b8181036020830152610860818a6107d5565b905061086f604083018961080e565b818103606083015261088181886107d5565b9050818103608083015261089581876107d5565b905081810360a08301526108a981866107d5565b90506108b860c083018561080e565b6108c560e08301846107c6565b9998505050505050505050565b60006108dc6108ed565b90506108e882826109f4565b919050565b6000604051905090565b600067ffffffffffffffff82111561091257610911610acc565b5b61091b82610b0f565b9050602081019050919050565b600081519050919050565b600082825260208201905092915050565b600061094f82610956565b9050919050565b600073ffffffffffffffffffffffffffffffffffffffff82169050919050565b6000819050919050565b82818337600083830152505050565b60005b838110156109ad578082015181840152602081019050610992565b838111156109bc576000848401525b50505050565b600060028204905060018216806109da57607f821691505b602082108114156109ee576109ed610a9d565b5b50919050565b6109fd82610b0f565b810181811067ffffffffffffffff82111715610a1c57610a1b610acc565b5b80604052505050565b6000610a3082610976565b91507fffffffffffffffffffffffffffffffffffffffffffffffffffffffffffffffff821415610a6357610a62610a6e565b5b600182019050919050565b7f4e487b7100000000000000000000000000000000000000000000000000000000600052601160045260246000fd5b7f4e487b7100000000000000000000000000000000000000000000000000000000600052602260045260246000fd5b7f4e487b7100000000000000000000000000000000000000000000000000000000600052604160045260246000fd5b600080fd5b600080fd5b600080fd5b600080fd5b6000601f19601f8301169050919050565b610b2981610976565b8114610b3457600080fd5b5056fea2646970667358221220d0b9f90bac45fe99909ab78d3bef56967dab221acceb261fdf40ce44df9e72af64736f6c63430008070033",
  "immutableReferences": {},
  "source": "// SPDX-License-Identifier: MIT\npragma solidity ^0.8.1;\n\ncontract SimpleStorage{\n    uint public count=0;\n    mapping(uint=>File) public files;\n    \n    struct File{\n        uint id;\n        string fileHash;\n        uint fileSize;\n        string fileType;\n        string fileName;\n        string fileDescription;\n        uint uploadTime;\n        address uploader;\n    }\n\n    event fileUploaded(\n        uint id,\n        string fileHash,\n        uint fileSize,\n        string fileType,\n        string fileName,\n        string fileDescription,\n        uint uploadTime,\n        address uploader\n    );\n    \n    function uploadFile(string memory _fileHash, uint _fileSize, string memory _fileType, string memory _fileName, string memory _fileDescription) public payable{\n        require(bytes(_fileHash).length>0);\n        require(bytes(_fileType).length>0);\n        require(bytes(_fileDescription).length>0);\n        require(bytes(_fileName).length>0);\n        require(bytes(_fileType).length>0);\n        require(_fileSize>0);\n        \n        require(msg.sender!=address(0));\n\n        count++;\n\n        //add file to map\n        files[count]=File(count, _fileHash, _fileSize, _fileType, _fileName, _fileDescription, block.timestamp, msg.sender);\n\n        emit fileUploaded(count, _fileHash, _fileSize, _fileType, _fileName, _fileDescription, block.timestamp, msg.sender);\n    }\n}",
  "sourcePath": "C:\\Users\\Abhishek\\Desktop\\blockDrop\\contracts\\SimpleStorage.sol",
  "compiler": {
    "name": "solc",
    "version": "0.8.7+commit.e28d00a7.Emscripten.clang"
  },
  "schemaVersion": "3.4.3",
  "updatedAt": "2021-08-29T06:03:50.986Z",
  "devdoc": {
    "kind": "dev",
    "methods": {},
    "version": 1
  },
  "userdoc": {
    "kind": "user",
    "methods": {},
    "version": 1
  }
}